:020000040800F2
:1000000030050020A10100085F1A00085B190008F4
:100010005D1A0008AD020008FD1D00080000000088
:10002000000000000000000000000000911B00081C
:100030007903000800000000611A0008931B000803
:10004000BB010008BB010008BB010008BB010008A0
:10005000BB010008BB010008BB010008BB01000890
:10006000BB010008BB010008BB010008BB01000880
:10007000BB010008BB010008BB010008BB01000870
:10008000BB010008BB010008BB010008BB01000860
:10009000B1020008BB010008BB010008BB01000859
:1000A000BB010008BB010008BB010008BB01000840
:1000B000BB010008BB010008BB010008BB01000830
:1000C000BB010008BB010008BB010008651A00085D
:1000D000BB010008BB010008BB010008BB01000810
:1000E000BB010008BB010008BB010008BB01000800
:1000F000BB010008BB010008BB010008BB010008F0
:10010000BB010008BB010008BB010008BB010008DF
:10011000BB010008BB010008BB010008BB010008CF
:10012000BB010008BB010008BB010008BB010008BF
:10013000BB010008BB010008BB010008BB010008AF
:10014000BB010008BB010008BB010008BB0100089F
:10015000BB010008BB010008BB010008BB0100088F
:10016000BB010008BB010008BB010008BB0100087F
:10017000BB010008BB010008BB0100080000000033
:10018000BB010008BB010008DFF810D000F07CF8CC
:1001900000480047D1220008AFF30080300500205E
:1001A0000648804706480047FEE7FEE7FEE7FEE711
:1001B000FEE7FEE7FEE7FEE7FEE7FEE7551C000868
:1001C000890100082DE9F05F0546002092469B4614
:1001D00088460646814640241BE02846414647465D
:1001E000224600F041F853465A46C01A914110D3B6
:1001F00011461846224600F028F82D1A67EB010830
:100200004F4622460120002100F01FF817EB00099D
:100210004E41201EA4F10104DFDC484631462A4647
:100220004346BDE8F09FD2B201E000F8012B491E21
:10023000FBD270470022F6E710B513460A46044683
:100240001946FFF7F0FF204610BD202A04DB203AB4
:1002500000FA02F1002070479140C2F1200320FA19
:1002600003F3194390407047202A04DB203A21FA17
:1002700002F00021704721FA02F3D040C2F12002BF
:100280009140084319467047064C074D06E0E06868
:1002900040F0010394E8070098471034AC42F6D3CD
:1002A000FFF776FFB8230008D8230008FEE7000018
:1002B000014800F0EAB9000068000020114808B5C4
:1002C00040F2014101600021416008228160C0E9E3
:1002D000031201750C4801216B4601700221417027
:1002E000032181700421C170052101710621417132
:1002F00007218171C2710349024601F1180000F023
:100300005BF808BD500000200B00002000B58DB048
:1003100001F024FB002001900090BDF8061007902A
:1003200001F01F01ADF80610BDF80210019A01F0AE
:100330001F01ADF802100121CDE908010292009AD7
:100340000392019A0492009ACDE905200E20CDE98E
:100350000A1002A9074800F09DF808B100F018F84B
:10036000044800F0D3FB0DB0022102485DF804EB15
:1003700000F010B8680000207047000001B5034885
:100380000099016001680029FCD108BD240000200B
:1003900072B6FEE790F82020012A07D0022A05D085
:1003A000416A41F48021416201207047006842693E
:1003B0000A43426100207047F0B590F8205004686D
:1003C000A468012D05D0022D03D0416A41F480219B
:1003D0005DE014F0406F01D1E50055D5C4F3016430
:1003E000022C03D9416A41F4000150E00125A540E7
:1003F0001D608D684FF4C0739DB1CE6835434E6863
:1004000045EAC605066803EB0417F5514FF4C275BB
:10041000076805EB04150E697E51097D012905D099
:1004200009E00E88CD6845EA4655EBE701684E596C
:1004300046F480764E511179D579567941EA0561B5
:1004400095792D0445EA062529434FF4C6760568BB
:1004500006EB0416A9511178D57841EA0561957823
:1004600052782D0445EA022211434FF4C475026804
:1004700005EB04155151006803EB0411425842F09A
:10048000010242500020F0BD416A41F40011416276
:100490000120F0BD10B590F82020012A07D0022AD3
:1004A00005D0416A41F480214162012010BD3B48E2
:1004B000D0F8002242F00102C0F80022D0F8002259
:1004C00022F47C52C0F80022D0F800224B6A42EAA3
:1004D0000322C0F800220A7D02F01F0301229A4085
:1004E000D0F81C329343C0F81C32CB69B3B9D0F8B2
:1004F0000C329343C0F80C328C894B6864F31F4371
:100500004C6900EBC404C4F840320C890B6864F3F6
:100510001F434C6900EBC404C4F84432CB69012B7F
:1005200016D1D0F80C321343C0F80C320C884B684B
:1005300064F31F434C6900EBC404C4F840320C89D7
:10054000CB6864F31F434C6900EBC404C4F8443225
:100550008B69002BD0F804320ED01343C0F804325C
:100560000B69002BD0F8143208D01343C0F81432B2
:10057000096A012904D008E09343EFE79343F5E7C4
:10058000D0F81C121143C0F81C12D0F8001221F050
:100590000101C0F80012002010BD000000640040FE
:1005A000704730B590F82040012C05D0022C03D0C4
:1005B000416A41F480215DE00468002955D0246936
:1005C000A40754D04FF4D874056804EB01142D59D6
:1005D00015F00405956005682D594ED0ED0855605D
:1005E00005682C5904F00204D4604FF4DA740568ED
:1005F00004EB01142D5905F00F05156105682D59FF
:10060000C5F30725956105682C59240C54614FF4F6
:10061000DC72046802EB0112A4581C700468A45830
:10062000240A5C700468A458240C9C700468A258C6
:10063000120EDA704FF4DE72046802EB0112A45855
:100640001C710468A458240A5C710468A458240C22
:100650009C710468A258120EDA71006881B10169B8
:1006600041F020010161002030BDE468A8E7416A43
:1006700041F400114162012030BD6D0D1560AFE7FE
:10068000C16841F02001C160EDE72DE9F05F05464A
:10069000006800244669D0F804908768D0F80CB050
:1006A000D0F810A0D0F81880F10748D0F90714D07E
:1006B00001218160B80703D5284600F054FA0CE008
:1006C000780702D54FF4006407E0380702D54FF4ED
:1006D000805402E0284600F045FAF80516D529684E
:1006E0004FF480708860B80503D5284600F03DFAC5
:1006F0000CE0780502D544F4005407E0380502D533
:1007000044F4804402E0284600F02EFAF80316D59F
:1007100029684FF480308860B80303D5284600F07C
:1007200026FA0CE0780302D544F4004407E03803CD
:1007300002D544F4803402E0284600F017FA30076E
:1007400007D55FEACB6004D52968102044F4007413
:10075000C86070074FF0080707D55FEA0B7004D533
:100760002868C760284600F059F9B00706D5286800
:10077000C068800702D0284600F052F9700607D5FD
:100780005FEACA6004D52968102044F480640861D7
:10079000B00607D55FEA0A7004D5286807612846C5
:1007A00000F0B0F9F00606D528680069800702D08D
:1007B000284600F0A8F9B00308D55FEAC96005D55E
:1007C000296810204860284600F09EF9F00307D5FC
:1007D0005FEA097004D528684760284600F0C8F928
:1007E000300446D55FEA497040D5F00504D55FEA8C
:1007F000C87001D044F00104B00504D55FEA8870E8
:1008000001D544F00204700504D55FEA487001D5B3
:1008100044F00404300529D518F0700F26D008F0F4
:100820007000402815D006DC102809D020280AD0F6
:10083000302816D10AE050280ED0602811D10EE0E1
:1008400044F008040DE044F010040AE044F02004F1
:1008500007E044F0400404E044F0800401E044F484
:1008600080742868816921F0700181612968042001
:100870004860002C05D0686A204368622846FFF76C
:100880008FFEBDE8F09F70B5040003D094F82000FF
:1008900010B104E0012070BD204600F081F820680E
:1008A000016841F00101016000F074FA0546052677
:1008B00004E000F06FFA401B0A2811D82068406855
:1008C000C007F6D02068016821F00201016000F045
:1008D00061FA05460BE000F05DFA401B0A2806D9D4
:1008E000606A40F40030606284F82060D2E72068DB
:1008F00040688007EFD4207E0128206801683DD041
:1009000021F080010160607E01282068016838D0F4
:1009100021F040010160A07E01282068016833D0E9
:1009200021F020010160E07E0128206801682ED0BE
:1009300041F010010160207F01282068016829D062
:1009400021F008010160607F01282068016824D03F
:1009500021F004010160D4E902010843D4E9041242
:10096000114308436168491E08432168C86100209B
:100970006062012084F82000002070BD41F08001F9
:10098000C0E741F04001C5E741F02001CAE721F08E
:100990001001CFE741F00801D4E741F00401D9E7A5
:1009A00010B586B0044614216846FFF743FC184989
:1009B0002068884229D117480021026842F000725D
:1009C0000260006800F0007005901248103802685C
:1009D00042F001020260006800F0010005904FF44F
:1009E000C05000900220CDE90101032003900920AE
:1009F00004906946084800F0CFF800220121142035
:100A000000F036FA142000F025FA06B010BD000000
:100A1000006400404038024000000240704700007F
:100A200070B51B4906460068096888422ED1184BEC
:100A30000021203BA3F11C023046FFF7B2FD002845
:100A400024D114A001F0DCF9114C21A03C3C216818
:100A500001F0D6F921A0616801F0D2F922A0216944
:100A600001F0CEF923A001F0CBF9002505E06019D3
:100A7000017F22A001F0C4F96D1C2069A842F6D8BC
:100A80003046BDE870400221FFF784BC70BD000015
:100A9000680000200D0A0D0A0D0A232323232323B7
:100AA00023232323232323232323232323204341DB
:100AB0004E2052454356202323232323232323233D
:100AC000232323232323232323230D0A00000000B1
:100AD000535449443A307825580D0A004558494442
:100AE0003A307825580D0A00444C43203A25640DCD
:100AF0000A000000444154413A000000307825309B
:100B000032582000704770477047000070B50446A7
:100B100090F82000012804D0606A40F40020606250
:100B200018E0022084F820002068016821F001010B
:100B3000016000F02FF905460EE000BF00F02AF931
:100B4000401B0A2808D9606A40F400306062052022
:100B500084F82000012070BD20684068C007EDD1F6
:100B6000606270BD7047704770477047704770474C
:100B7000704790F83510022903D08021416501208B
:100B80007047052180F835100068016821F00101E7
:100B900001600020704700002DE9F84FDFF8BCA18C
:100BA0000022012503264FF00F090AF1040BAAF1D8
:100BB000040E00BF0B6805FA02F42340A34270D173
:100BC0000F7907F00307012F01D0022F16D1876894
:100BD0004FEA420806FA08FC27EA0C07D1F80CC0D5
:100BE0000CFA08FC4CEA070CC0F808C04768A74399
:100BF0000C79C4F3001494403C4344600C79E44302
:100C0000A4070AD0C4684FEA420C06FA0CF7BC43AA
:100C10008F6807FA0CF72743C7600C7904F00304C8
:100C2000022C12D1D40800EB840CDCF820405707CA
:100C3000FF0E09FA07F824EA0804D1F8108008FA30
:100C400007F848EA0408CCF8208004684FEA420C10
:100C500006FA0CF7BC430F7907F0030707FA0CF705
:100C6000274307604C6814F4403F70D03C4C276821
:100C700047F480472760246822F0030704F4804487
:100C80000094384C07EB040CDCF8084897074FEA4F
:100C9000177809FA08F7BC43334FB84202D100274E
:100CA00024E054E0314FB84201D101271EE0304F1B
:100CB000B84201D1022719E02E4FB84201D10327D3
:100CC00014E02D4FB84201D104270FE02B4FB8425A
:100CD00001D105270AE02A4FB84201D1062705E0D5
:100CE000284FB84201D1072700E0082707FA08F784
:100CF0002743CCF80878DAF800405746D1F804C00A
:100D00009C435FEACC2C00D51C433C60DBF80040E0
:100D10005F46D1F804C09C435FEA8C2C00D51C438D
:100D20003C60DEF800407746D1F804C09C435FEA9F
:100D30008C3C00D51C433C60084F083F3C68D1F810
:100D400004C09C435FEACC3C00D51C433C60521C71
:100D5000102AFFF42FAFBDE8F88F0000083C0140D7
:100D600044380240003001400000024000040240CC
:100D700000080240000C0240001002400014024033
:100D800000180240001C02400AB18161704709044A
:100D9000FBE7000001488068704700001400002055
:100DA0000248816802781144816070471400002075
:100DB0000B4810B5016841F400710160016841F40D
:100DC00080610160016841F480710160032000F0DE
:100DD0006FF80F2000F006F800F024F8002010BD96
:100DE000003C024070B50D4D04464FF47A712878EE
:100DF000B1FBF0F00A490968B1FBF0F000F0D9FC52
:100E000048B9102C07D200222146501E00F030F8BD
:100E100000206C6070BD012070BD00001400002037
:100E2000200000200A4808B5016841F480410160B3
:100E3000006800F4804000900548001F016841F000
:100E400080510160006800F08050009008BD0000F3
:100E500044380240002809DB00F01F0201219140C4
:100E60004009800000F1E020C0F800117047000048
:100E7000F0B40E4B1B680C46C3F30223C3F1070505
:100E8000042D00D90425191D072901D2002300E0F3
:100E9000DB1E012606FA05F1491E214099409E40BD
:100EA000761E16403143F0BC00F0BABF0CED00E0F6
:100EB000064900F0070208684FF6FF03184040EAB1
:100EC0000220034A10430860704700000CED00E068
:100ED0000000FA052DE9F0470E46050065D0DFF861
:100EE0001481D8F80000F7B200F00700B04207D232
:100EF00088F80070D8F8000000F00700B04254D124
:100F000028683D4C810712D5400703D5206840F47E
:100F1000E05020602878000703D5206840F4604046
:100F200020602068A96820F0F0000843206028783D
:100F3000C0072DD0304968680839012812D002282E
:100F400013D0032811D00968890700292DDA2168F8
:100F500021F0030101432160FFF71CFF814641F2AC
:100F6000883A0EE009688903EFE709688901ECE730
:100F7000FFF710FFA0EB0901514502D90320BDE89E
:100F8000F0872068696800F00C00B0EB810FEFD1AA
:100F9000D8F80010404601F00701B14207D90770A8
:100FA000006800F00700B04201D00120E7E7287890
:100FB000400705D52068E96820F4E0500843206028
:100FC0002878000706D52068296920F4604040EAA7
:100FD000C100206000F038F82168084AC1F303110D
:100FE000515CC8400649086006480068FFF7FAFEF1
:100FF0000020C4E7003C024008380240A02300085B
:1010000020000020180000200448054900680968F5
:10101000044AC1F38221515CC8407047200000207F
:1010200008380240B02300080448054900680968F0
:10103000044AC1F34231515CC8407047200000208F
:1010400008380240B0230008154810B5006810F0B9
:101050000C02144813D01449042A0FD0082A0ED1C8
:101060000F4C241F2268236802F03F025B0207D561
:101070002068C0F38810A0FB010106E0084610BDFF
:101080002168C1F38811A1FB00010023FFF79AF842
:101090002168C1F30141491C4900B0FBF1F010BDCA
:1010A000083802400024F40040787D012DE9F84F13
:1010B00004006ED02078DFF84C93C007A9F1040536
:1010C0004AD009F104000168C1F38101012908D067
:1010D0000068C0F3810002280AD1D9F8000040025C
:1010E00006D52868800337D560680028E1D033E052
:1010F0006068B0F5803F10D0B0F5A02F286810D000
:1011000020F480302860286820F4802028606068FF
:10111000A8B1FFF73FFE06460DE0286840F4803096
:10112000F4E740F480202860F7E700BFFFF732FEC5
:10113000801B642873D828688003F7D50CE0FFF77C
:1011400029FE064605E000BFFFF724FE801B642849
:10115000F0D828688003F7D42078DFF8AC828007C5
:101160004FF0000A3ED5A748001D016811F00C0F92
:1011700008D00068C0F3810002280BD1D9F8000024
:10118000400207D42868800716D5E068012800D1FE
:1011900012E033E1E068B8B10120C8F80000FFF7C1
:1011A000F9FD064605E000BFFFF7F4FD801B0228AD
:1011B000C0D828688007F7D52868216920F0F80092
:1011C00040EAC10028600DE0C8F800A0FFF7E2FD8A
:1011D000064604E0FFF7DEFD801B02281FD82868C2
:1011E0008007F7D42078000722D5864F87486169A9
:1011F000703771B101210160FFF7CCFD064604E0B4
:10120000FFF7C8FD801B022809D838688007F7D58A
:101210000EE0C0F800A0FFF7BDFD064605E082E045
:10122000FFF7B8FD801B02287DD838688007F7D407
:101230002078400768D5DFF8CCB100270BF13C0BD4
:10124000DBF80000C0000BD4DBF8001041F0805147
:10125000CBF80010DBF80000012700F08050009070
:101260006B4E3068C00510D4306840F48070306038
:10127000FFF790FD009005E0FFF78CFD0099401A04
:10128000022850D83068C005F6D55E4EA0686C368E
:1012900001280FD00528306810D020F00100306000
:1012A000306820F004003060A068B8B1FFF772FD2C
:1012B00000900FE0306840F00100F4E740F00400D7
:1012C0003060F7E7FFF766FD0099411A41F2883078
:1012D000814266D830688007F4D50EE0FFF75AFDEA
:1012E000009007E0FFF756FD0099411A41F288305F
:1012F000814256D830688007F4D42FB1DBF8001053
:1013000021F08051CBF80010A069C8B33D49091DF8
:101310000968C1F3810102294AD00228504607D04A
:10132000C8F8600000E03CE0FFF734FD04463BE015
:101330004746C8F86000FFF72DFD064605E000BFF0
:10134000FFF728FD801B02282BD828688001F7D4DE
:10135000D4E907010843A16A2E4A490802EB01417A
:10136000626A41EA8211084394F82C1040EA016154
:10137000C9F8001001203866FFF70CFD044606E0AE
:101380003EE000BFFFF706FD001B022809D82868D1
:101390008001F7D534E000BFFFF7FCFC001B0228FA
:1013A00002D90320BDE8F88F28688001F4D427E033
:1013B0000128F7D0D9F80000E26900F480019142D9
:1013C0001CD1226A00F03F01914217D147F6C0714B
:1013D000626A0140B1EB821F10D1A26A4FF0FF3365
:1013E00000F4403103EB5202B1EB024F06D194F806
:1013F0002C1000F07060B0EB016F01D00120D1E73C
:101400000020CFE70438024000004742800E4742E8
:10141000007000400000FFFF7047000038B5016811
:1014200004464A688868C043430606D5C30704D10A
:10143000D3435B0601D4216C05E0830708D4D34372
:101440001B0605D4616C01B02046BDE8304008475A
:10145000830603D5430601D5C30551D4D3439B0668
:101460004ED443060AD494F85130032B49D0636D0F
:1014700043F004036365CB688B680093830609D44B
:10148000636D43F0010363658B6800930B6823F081
:1014900040030B60C00506D4606D40F00800606535
:1014A000206880680090606D002829D0206841681D
:1014B00021F0E0014160012084F85100900701D43F
:1014C000D00722D02068416821F003014160114D0E
:1014D000E06C40B10565E06CFFF74BFB18B1606D47
:1014E00040F040006065A06C002809D00565A06C44
:1014F000FFF73FFB002803D0606D40F040006065BF
:1015000038BDC8688868009038BD2046FFF784FF62
:1015100038BD0000711A000870B5040009D0606A77
:10152000002540B125616561A56294F8510040B184
:101530000CE0012070BD6068B0F5827FF4D0E561F9
:10154000F2E784F85050204600F044F8022084F876
:1015500051002068016821F040010160A0882189C4
:1015600000F4827001F404410843A18901F4006190
:101570000843217C01F002010843217D01F00101B3
:101580000843218B01F400710843217F01F03801E9
:10159000084394F8201001F080010843218D01F4E4
:1015A0000051084321680860A069042101EA104045
:1015B00094F8241001F01001084321684860206865
:1015C000C16921F40061C1616565012084F85100A1
:1015D000002070BD10B586B0044614216846FEF7A1
:1015E00029FE17492068884228D116480021026840
:1015F00042F480520260006800F480500590114867
:101600001438026842F001020260006800F0010034
:101610000590F02000900220CDE901010320039005
:101620000520049069460848FFF7B6FA00221146E3
:101630002320FFF71DFC2320FFF70CFC06B010BD94
:101640000030014044380240000002402DE9F84FCC
:10165000044690F8500000271D461646894601288A
:101660000DD04FF0010B84F850B0FFF793FB80468C
:1016700094F85100BA46012804D0022793E00220D2
:10168000BDE8F88FB9F1000F73D0002E71D00320A0
:1016900084F85100C4F854A0C4F83090A686E686B9
:1016A000C4F838A0A4F83CA0A4F83EA0C4F844A014
:1016B000C4F840A0A068B0F5004F09D120680168C7
:1016C00021F0400101602068016841F4804101601F
:1016D00020680168490603D4016841F040010160B7
:1016E000E068B0F5006F606803D030B3012E24D0FD
:1016F00041E008B1012E1CD1206B21680088C86030
:1017000006E020688168890709D5216B0988C160D6
:10171000206B801C2063E08E401EE08609E0FFF70E
:1017200039FBA0EB0800A84202D3681C01D031E0CD
:101730007DB3E08E0028E4D120E0206B21680078A2
:10174000087306E020688168890709D5216B09784C
:101750000173206B401C2063E08E401EE0860AE08F
:10176000FFF718FBA0EB0800A84203D3681C02D0C7
:1017700010E017E06DB1E08E0028E3D14246294623
:10178000204600F07DF908B120206065A06818B1FE
:1017900006E0FFE7032706E02068C1688068009044
:1017A000606D00B1012784F851B084F850A038462C
:1017B00066E710B5401EB0F1807F01D3012010BD57
:1017C0004FF0E02460610F21601700F029FB00203A
:1017D000A06107202061002010BD70B5040004D076
:1017E00094F83D00002510B106E0012070BD84F89A
:1017F0003C50204600F022F8242084F83D00206868
:10180000C16821F40051C160204600F035FA20681B
:10181000016921F4904101612068416921F02A01A8
:1018200041612068C16841F40051C16025642020F5
:1018300084F83D0084F83E00002070BD10B586B0ED
:10184000044614216846FEF7F5FC144920688842D6
:1018500021D113480021026842F0100202600068A2
:1018600000F0100005900E481438026842F00102A2
:101870000260006800F0010005904FF4C060009025
:101880000220CDE90101032003900720049069465E
:101890000448FFF781F906B010BD000000100140B8
:1018A00044380240000002402DE9F843044690F815
:1018B0003D001F4616460D4620284CD1C5B1BEB18D
:1018C00094F83C00012846D0012084F83C004FF0F9
:1018D0000008C4F84080212084F83D00FFF75AFA40
:1018E000A6848146E684A068B0F5805F03D004E05A
:1018F0000120BDE8F883206928B12E465FF000057D
:1019000084F83C800EE00026FAE78021204600F0B3
:1019100039FAA0B9AEB116F8010B21684860E08C25
:10192000401EE084E08C4B464FF0000200970028F8
:10193000EBD14FF04001204600F024FA30B10320F3
:10194000D7E735F8020BC0F30800E6E7202084F85B
:101950003D000020CDE70220CBE7FEE70F4810B5A1
:101960000D49016015214160002181604FF4801212
:10197000C160C0E904120176012242768276C17606
:1019800001774177FEF77FFF002803D0BDE81040C4
:10199000FEF7FEBC10BD000000640040680000209F
:1019A0000D4808B5016841F004010160016801F0CB
:1019B00004010091016841F080010160016801F0BB
:1019C00080010091016841F001010160006800F0B0
:1019D0000100009008BD000030380240104810B5EA
:1019E0000E4901604FF48271416000218160C16045
:1019F0004FF480220161C0E905122022C0E90721CD
:101A0000416281620A21C162FFF786FD002803D08E
:101A1000BDE81040FEF7BCBC10BD00000030014026
:101A2000900000200C4810B50A4901604FF4E131E4
:101A30004160002181600C22C160C0E90412816113
:101A4000C161FFF7CAFE002803D0BDE81040FEF7D1
:101A50009FBC10BD00100140E8000020FEE7FEE73B
:101A6000704700000148FFF7D9BC0000900000203B
:101A700010B5806B0021C187C186FFF7CDFC10BD7A
:101A800038B504461248134B0068B0FBF3F04FF42E
:101A90007A73584300906068B0F5827F0DD10B4691
:101AA000009200228021204600F016F870B1606D8F
:101AB00040F020006065032038BD009830B1401E22
:101AC000009020688068C0430006F6D5002038BD2D
:101AD0002000002000366E012DE9F8431E46914695
:101AE00088460446089DFFF755F9401B351AFFF755
:101AF00051F9074625480068C0F3CB30684338E009
:101B0000701C37D0FFF746F9C01BA84203D215B1AD
:101B1000009860B32CE02068416821F0E00141604A
:101B20006068B0F5827F0BD1A068B0F5004F02D09D
:101B3000B0F5806F04D12068016821F04001016098
:101B4000A06AB0F5005F09D12068016821F4005156
:101B500001602068016841F400510160012084F8AF
:101B60005100002084F850000320BDE8F8830025D0
:101B7000401E00902068816838EA010004D00021EE
:101B80004945BDD10020F0E70121F9E72000002000
:101B9000704710B5FFF704F9BDE8104000F062B8D7
:101BA000054810B500680549B0FBF1F0FFF701FEEC
:101BB000002800D0FEE710BD20000020A086010014
:101BC00030B593B030216846FEF734FB14210CA8E1
:101BD000FEF730FB1D480025016841F0805101608F
:101BE000006800F0805011901948016841F480416C
:101BF00001600068022400F48040119001200390ED
:101C000010200490009406940820CDE90750A820E5
:101C1000CDE9090404200B906846FFF747FA08B1A4
:101C200072B6FEE70CA90F2081E831004FF4A050F6
:101C30000F904FF48050109005210CA8FFF74AF93F
:101C4000002801D072B6FEE713B030BD4038024024
:101C5000007000400248016841F470010160704763
:101C600088ED00E003480168002902D00168491EA0
:101C7000016070472400002070B5044600680169C7
:101C8000E26821F44051114301612169A068E269D1
:101C900008436169114308432168CA6849F20C632B
:101CA0009A430243CA6020684169A26921F44071E5
:101CB0001143416131492068884202D0304988424D
:101CC00002D1FFF7B1F901E0FFF79EF9E2690023C5
:101CD000192164253226B2F5004F626828D0A0FB96
:101CE0000101930F9200FEF76DFA0146B0FBF5F08B
:101CF0006FF01802504301EB800006EB0010B0FBC0
:101D0000F5F000F0F002B1FBF5F002EB0012B1FBD0
:101D1000F5F06FF01803584301EB800006EB00105C
:101D2000B0FBF5F000F00F0021681044886070BD32
:101D3000A0FB010192185B41FEF744FA0146B0FB9B
:101D4000F5F00201B1FBF5F06FF01803584301EB19
:101D5000800006EBC000B0FBF5F000F0F80002EBED
:101D60004002B1FBF5F0584301EB800006EBC000E8
:101D7000B0FBF5F000F00700D6E7000000100140CE
:101D8000001401402DE9F041984617460E460446DE
:101D9000069D27E0681C25D02DB1FEF7FBFFA0EBC8
:101DA0000800A8421ED920680C3050E8001F21F41A
:101DB000D07140E80012002AF5D12068143050E8B4
:101DC000001F21F0010140E80012002AF5D1202077
:101DD00084F83D0084F83E00002084F83C00032095
:101DE000BDE8F0812068006836EA000004D00020D9
:101DF000B842CFD00020F3E70120F9E7FEE700006A
:101E00000FB4054B10B503A9044A029800F028F856
:101E100010BC5DF814FB0000B92200082800002067
:101E20000907090E002804DB00F1E02080F8001407
:101E3000704700F00F0000F1E02080F8141D70479B
:101E400002E008C8121F08C1002AFAD17047704783
:101E5000002001E001C1121F002AFBD170470000E1
:101E60002DE9FF4F8DB00F460546002606E02528D8
:101E70000BD0DDE90F1290476D1C761C28780028E6
:101E8000F5D111B03046BDE8F08F0024A246A1463E
:101E90000122E94900E0044315F8013F203B02FA22
:101EA00003F00842F7D128782A2810D06FF02F02CB
:101EB0002878A0F13001092914D80AEB8A0102EB35
:101EC000410144F0020400EB010A6D1CF0E701CF70
:101ED0005FEA000A03D544F40054CAF1000A44F052
:101EE00002046D1C28782E2817D115F8010F44F034
:101EF00004042A280ED06FF02F022878A0F13001B8
:101F000009290AD809EB890102EB410100EB01091B
:101F10006D1CF2E757F8049B6D1C28786C280FD0D5
:101F200006DC4C2817D068280DD06A2814D104E0AC
:101F3000742810D07A280FD10DE044F400140AE080
:101F400044F4801401E044F440146978814202D1E1
:101F500004F580146D1C6D1C28786E281ED00CDCD6
:101F6000632830D004DC00288BD0582811D19FE0A2
:101F7000642867D069280CD164E073282DD004DC74
:101F80006F2872D0702804D194E075286ED078281C
:101F90006DD0DDE90F129047761C4BE1C4F302507F
:101FA000022806D0032809D0042801CF09D00660F2
:101FB00040E101CFF117C0E900613BE101CF0680AC
:101FC00038E1067036E117F8040B8DF800000020A8
:101FD0008DF80100EB46012003E057F804BB4FF0F9
:101FE000FF3061074FF0000102D40DE008F101015C
:101FF000884649450FDA8045F8DB1BF808100029B0
:10200000F4D108E008F1010188468142FADB1BF8AF
:1020100008100029F6D1DDE90F23AAEB080081465C
:10202000214600F031F9304400EB080604E0DDE918
:102030000F121BF8010B9047B8F10108F7D22146A7
:102040004846F2E00A21C4F302524FF0000B089117
:10205000022A04D001CFC117032A09D00AE0FF1DCC
:1020600027F00707F7E8020108E02CE01EE01FE078
:1020700000B2C117042A01D140B2C117021E71F18A
:10208000000206DA0023D0EB030063EB01012D22EE
:1020900002E0220504D52B228DF82420012203E042
:1020A000E20701D02022F7E7904653E00A210BE037
:1020B000102109E010214FF0000B44F004044FF010
:1020C0000809089103E008214FF0000B0891C4F3C0
:1020D0000252022A04D001CF0021032A06D006E0D2
:1020E000FF1D27F00707F7E8020103E080B2042A8A
:1020F00000D1C0B24FF0000822072BD52A78702AF1
:1021000007D0DDF820C08CF0100C5CEA0B0C05D079
:102110000EE040228DF82420012208E050EA01035D
:1021200006D030238DF824308DF8252002229046E9
:10213000089B83F0080353EA0B030BD150EA01021A
:1021400001D1620706D530228DF824204FF0010816
:10215000A9F101092A78582A04D038A20B9208AABA
:102160000A920BE03AA2F9E75B46089AFEF72AF8D2
:102170000B9B9B5C0A9A521E0A92137050EA010252
:10218000F2D10A98ADEB000000F1200B600702D5F8
:1021900024F4803401E04FF00109D94502DDA9EBB8
:1021A0000B0000E0002000EB0B0141440890AAEB7B
:1021B000010AE00306D4DDE90F232146504600F072
:1021C00063F806444FF0000908E009A911F8090076
:1021D000DDE90F12904709F10109761CC145F4DBD6
:1021E000E0030CD5DDE90F232146504600F04CF802
:1021F000064404E0DDE90F1230209047761C089970
:10220000481E08900029F5DC08E00A980A99007831
:10221000491C0A91DDE90F129047761CBBF10001C1
:10222000ABF1010BF1DC21465046DDE90F2300F054
:1022300019F806446D1C21E60928010030313233BB
:1022400034353637383961626364656600000000F2
:1022500030313233343536373839414243444546DC
:10226000000000002DE9F041044600251E461746F7
:10227000880404D405E039462020B0476D1C641E54
:10228000F9D52846BDE8F0812DE9F0410446002546
:102290001E469046C80301D5302700E02027880459
:1022A00004D505E041463846B0476D1C641EF9D59B
:1022B0002846BDE8F081000013B54FF47A7301227F
:1022C00069460248FFF7F0FA00981CBDE8000020BC
:1022D000FEF76EFDFFF774FCFFF762FCFFF760FB93
:1022E000FFF7A0FBFFF73AFBFFF778FBFEF70EF8CE
:1022F00008A0FFF785FDFDF7E1FF114C11A0FFF7E6
:102300007FFD2046FEF73AF809210F4800F01EF83D
:10231000F4E700002D2D2D2D2D2D2D2D2D2D2D2DC6
:102320002D2D2D2D2D2D2D2D2D2D2D2D2D2D2D2DDD
:102330002D2D2D2D2D2D2D2D2D2D2D2D0D0A00006A
:10234000A08601006F6B0A000200002070B50D4EE0
:102350000C460546002210213046FEF715FD4FF4CD
:102360007A73224629460848FFF770F910B907A08A
:10237000FFF746FD3046BDE8704001221021FEF710
:1023800003BD0000000002409000002073656E64F1
:1023900020736563636573732121210A00000000C7
:1023A0000000000000000000010203040607080905
:1023B0000000000001020304D823000800000020F0
:1023C0002C000000401E0008042400082C000020FF
:1023D00004050000501E00080000616E64797A7ADE
:1023E0007A7A610000000000000000000100000097
:1023F00010000000000000000024F40000000000B5
:0424000000000000D8
:040000050800018965
:00000001FF
