:020000040800F2
:10000000F0040020A10100087B15000883140008FB
:1000100079150008AD020008151B0008000000005B
:10002000000000000000000000000000E5180008CB
:10003000BD020008000000007D150008E718000858
:10004000BB010008BB010008BB010008BB010008A0
:10005000BB010008BB010008BB010008BB01000890
:10006000BB010008BB010008BB010008BB01000880
:10007000BB010008BB010008BB010008BB01000870
:10008000BB010008BB010008BB010008BB01000860
:10009000B1020008BB010008BB010008BB01000859
:1000A000BB010008BB010008BB010008BB01000840
:1000B000BB010008BB010008BB010008BB01000830
:1000C000BB010008BB010008BB0100088115000846
:1000D000BB010008BB010008BB010008BB01000810
:1000E000BB010008BB010008BB010008BB01000800
:1000F000BB010008BB010008BB010008BB010008F0
:10010000BB010008BB010008BB010008BB010008DF
:10011000BB010008BB010008BB010008BB010008CF
:10012000BB010008BB010008BB010008BB010008BF
:10013000BB010008BB010008BB010008BB010008AF
:10014000BB010008BB010008BB010008BB0100089F
:10015000BB010008BB010008BB010008BB0100088F
:10016000BB010008BB010008BB010008BB0100087F
:10017000BB010008BB010008BB0100080000000033
:10018000BB010008BB010008DFF810D000F07CF8CC
:1001900000480047A11B0008AFF30080F0040020D6
:1001A0000648804706480047FEE7FEE7FEE7FEE711
:1001B000FEE7FEE7FEE7FEE7FEE7FEE7811900083F
:1001C000890100082DE9F05F0546002092469B4614
:1001D00088460646814640241BE02846414647465D
:1001E000224600F041F853465A46C01A914110D3B6
:1001F00011461846224600F028F82D1A67EB010830
:100200004F4622460120002100F01FF817EB00099D
:100210004E41201EA4F10104DFDC484631462A4647
:100220004346BDE8F09FD2B201E000F8012B491E21
:10023000FBD270470022F6E710B513460A46044683
:100240001946FFF7F0FF204610BD202A04DB203AB4
:1002500000FA02F1002070479140C2F1200320FA19
:1002600003F3194390407047202A04DB203A21FA17
:1002700002F00021704721FA02F3D040C2F12002BF
:100280009140084319467047064C074D06E0E06868
:1002900040F0010394E8070098471034AC42F6D3CD
:1002A000FFF776FF141C0008341C0008FEE700006E
:1002B000014800F007B8000028000020704772B61F
:1002C000FEE770472DE9F05F0546006800244669A7
:1002D000D0F804908768D0F80CB0D0F810A0D0F80F
:1002E0001880F10748D0F90714D001218160B807C0
:1002F00003D5284600F0B6F90CE0780702D54FF494
:10030000006407E0380702D54FF4805402E0284625
:1003100000F0A7F9F80516D529684FF480708860B9
:10032000B80503D5284600F09FF90CE0780502D502
:1003300044F4005407E0380502D544F4804402E058
:10034000284600F090F9F80316D529684FF480305C
:100350008860B80303D5284600F088F90CE07803DC
:1003600002D544F4004407E0380302D544F4803455
:1003700002E0284600F079F9300707D55FEACB6044
:1003800004D52968102044F40074C86070074FF049
:10039000080707D55FEA0B7004D52868C7602846B0
:1003A00000F05AF9B00706D52868C068800702D067
:1003B000284600F052F9700607D55FEACA6004D5F6
:1003C0002968102044F480640861B00607D55FEA0C
:1003D0000A7004D528680761284600F03FF9F00646
:1003E00006D528680069800702D0284600F037F952
:1003F000B00308D55FEAC96005D5296810204860B8
:10040000284600F02DF9F00307D55FEA097004D5FE
:1004100028684760284600F02AF9300446D55FEA8C
:10042000497040D5F00504D55FEAC87001D044F0AA
:100430000104B00504D55FEA887001D544F00204D8
:10044000700504D55FEA487001D544F00404300516
:1004500029D518F0700F26D008F07000402815D06C
:1004600006DC102809D020280AD0302816D10AE04E
:1004700050280ED0602811D10EE044F008040DE0A1
:1004800044F010040AE044F0200407E044F0400483
:1004900004E044F0800401E044F480742868816939
:1004A00021F070018161296804204860002C05D08A
:1004B000686A204368622846FFF703FFBDE8F09FA3
:1004C00070B5040003D094F8200010B104E00120BE
:1004D00070BD204600F082F82068016841F00101FB
:1004E000016000F0CFF90546052604E000F0CAF9E6
:1004F000401B0A2811D820684068C007F6D0206841
:10050000016821F00201016000F0BCF905460BE032
:1005100000F0B8F9401B0A2806D9606A40F40030A0
:10052000606284F82060D2E7206840688007EFD4DA
:10053000207E0128206801683DD021F08001016003
:10054000607E01282068016838D021F040010160F8
:10055000A07E01282068016833D021F020010160CD
:10056000E07E0128206801682ED041F01001016072
:10057000207F01282068016829D021F0080101604E
:10058000607F01282068016824D021F00401016007
:10059000D4E902010843D4E9041211430843616815
:1005A000491E08432168C86100206062012084F868
:1005B0002000002070BD41F08001C0E741F0400103
:1005C000C5E741F02001CAE721F01001CFE741F073
:1005D0000801D4E741F00401D9E7000010B586B066
:1005E000044614216846FFF725FE18492068884212
:1005F00029D117480021026842F0007202600068A9
:1006000000F00070059012481038026842F00102B4
:100610000260006800F0010005904FF4C0500090A7
:100620000220CDE9010103200390092004906946CE
:10063000084800F02FF800220221142000F090F961
:10064000142000F07FF906B010BD000000640040E7
:1006500040380240000002407047704770477047C2
:1006600070477047704770477047704770477047D2
:1006700090F83510022903D0802141650120704790
:10068000052180F835100068016821F00101016042
:10069000002070472DE9F84FDFF8BCA100220125AA
:1006A00003264FF00F090AF1040BAAF1040E00BF54
:1006B0000B6805FA02F42340A34270D10F7907F0CA
:1006C0000307012F01D0022F16D187684FEA420895
:1006D00006FA08FC27EA0C07D1F80CC00CFA08FC53
:1006E0004CEA070CC0F808C04768A7430C79C4F36C
:1006F000001494403C4344600C79E443A4070AD0BE
:10070000C4684FEA420C06FA0CF7BC438F6807FA3C
:100710000CF72743C7600C7904F00304022C12D1B4
:10072000D40800EB840CDCF820405707FF0E09FAD0
:1007300007F824EA0804D1F8108008FA07F848EA14
:100740000408CCF8208004684FEA420C06FA0CF743
:10075000BC430F7907F0030707FA0CF7274307603C
:100760004C6814F4403F70D03C4C276847F48047F5
:100770002760246822F0030704F480440094384C76
:1007800007EB040CDCF8084897074FEA177809FADA
:1007900008F7BC43334FB84202D1002724E054E0AD
:1007A000314FB84201D101271EE0304FB84201D18C
:1007B000022719E02E4FB84201D1032714E02D4F34
:1007C000B84201D104270FE02B4FB84201D10527D1
:1007D0000AE02A4FB84201D1062705E0284FB84267
:1007E00001D1072700E0082707FA08F72743CCF8CC
:1007F0000878DAF800405746D1F804C09C435FEA15
:10080000CC2C00D51C433C60DBF800405F46D1F89F
:1008100004C09C435FEA8C2C00D51C433C60DEF88E
:1008200000407746D1F804C09C435FEA8C3C00D579
:100830001C433C60084F083F3C68D1F804C09C430F
:100840005FEACC3C00D51C433C60521C102AFFF4EC
:100850002FAFBDE8F88F0000083C0140443802404B
:100860000030014000000240000402400008024045
:10087000000C024000100240001402400018024028
:10088000001C0240014880687047000014000020EE
:10089000024881680278114481607047140000208A
:1008A0000B4810B5016841F400710160016841F422
:1008B00080610160016841F480710160032000F0F3
:1008C0006FF80F2000F006F800F024F8002010BDAB
:1008D000003C024070B50D4D04464FF47A71287803
:1008E000B1FBF0F00A490968B1FBF0F000F0F5FC4B
:1008F00048B9102C07D200222146501E00F030F8D3
:1009000000206C6070BD012070BD0000140000204C
:10091000200000200A4808B5016841F480410160C8
:10092000006800F4804000900548001F016841F015
:1009300080510160006800F08050009008BD000008
:1009400044380240002809DB00F01F0201219140D9
:100950004009800000F1E020C0F80011704700005D
:10096000F0B40E4B1B680C46C3F30223C3F107051A
:10097000042D00D90425191D072901D2002300E008
:10098000DB1E012606FA05F1491E214099409E40D2
:10099000761E16403143F0BC01F0C6B80CED00E005
:1009A000064900F0070208684FF6FF03184040EAC6
:1009B0000220034A10430860704700000CED00E07D
:1009C0000000FA052DE9F0470E46050065D0DFF876
:1009D0001481D8F80000F7B200F00700B04207D247
:1009E00088F80070D8F8000000F00700B04254D139
:1009F00028683D4C810712D5400703D5206840F494
:100A0000E05020602878000703D5206840F460405B
:100A100020602068A96820F0F00008432060287852
:100A2000C0072DD0304968680839012812D0022843
:100A300013D0032811D00968890700292DDA21680D
:100A400021F0030101432160FFF71CFF814641F2C1
:100A5000883A0EE009688903EFE709688901ECE745
:100A6000FFF710FFA0EB0901514502D90320BDE8B3
:100A7000F0872068696800F00C00B0EB810FEFD1BF
:100A8000D8F80010404601F00701B14207D90770BD
:100A9000006800F00700B04201D00120E7E72878A5
:100AA000400705D52068E96820F4E050084320603D
:100AB0002878000706D52068296920F4604040EABC
:100AC000C100206000F038F82168084AC1F3031122
:100AD000515CC8400649086006480068FFF7FAFE06
:100AE0000020C4E7003C024008380240FC1B00081C
:100AF000200000201800002004480549006809680B
:100B0000044AC1F38221515CC84070472000002094
:100B1000083802400C1C00080448054900680968B0
:100B2000044AC1F34231515CC840704720000020A4
:100B3000083802400C1C0008154810B5006810F079
:100B40000C02144813D01449042A0FD0082A0ED1DD
:100B50000F4C241F2268236802F03F025B0207D576
:100B60002068C0F38810A0FB010106E0084610BD14
:100B70002168C1F38811A1FB00010023FFF722FBCC
:100B80002168C1F30141491C4900B0FBF1F010BDDF
:100B9000083802400024F40040787D012DE9F84F28
:100BA00004006ED02078DFF84C93C007A9F104054B
:100BB0004AD009F104000168C1F38101012908D07C
:100BC0000068C0F3810002280AD1D9F80000400271
:100BD00006D52868800337D560680028E1D033E067
:100BE0006068B0F5803F10D0B0F5A02F286810D015
:100BF00020F480302860286820F480202860606815
:100C0000A8B1FFF73FFE06460DE0286840F48030AB
:100C1000F4E740F480202860F7E700BFFFF732FEDA
:100C2000801B642873D828688003F7D50CE0FFF791
:100C300029FE064605E000BFFFF724FE801B64285E
:100C4000F0D828688003F7D42078DFF8AC828007DA
:100C50004FF0000A3ED5A748001D016811F00C0FA7
:100C600008D00068C0F3810002280BD1D9F8000039
:100C7000400207D42868800716D5E068012800D113
:100C800012E033E1E068B8B10120C8F80000FFF7D6
:100C9000F9FD064605E000BFFFF7F4FD801B0228C2
:100CA000C0D828688007F7D52868216920F0F800A7
:100CB00040EAC10028600DE0C8F800A0FFF7E2FD9F
:100CC000064604E0FFF7DEFD801B02281FD82868D7
:100CD0008007F7D42078000722D5864F87486169BE
:100CE000703771B101210160FFF7CCFD064604E0C9
:100CF000FFF7C8FD801B022809D838688007F7D5A0
:100D00000EE0C0F800A0FFF7BDFD064605E082E05A
:100D1000FFF7B8FD801B02287DD838688007F7D41C
:100D20002078400768D5DFF8CCB100270BF13C0BE9
:100D3000DBF80000C0000BD4DBF8001041F080515C
:100D4000CBF80010DBF80000012700F08050009085
:100D50006B4E3068C00510D4306840F4807030604D
:100D6000FFF790FD009005E0FFF78CFD0099401A19
:100D7000022850D83068C005F6D55E4EA0686C36A3
:100D800001280FD00528306810D020F00100306015
:100D9000306820F004003060A068B8B1FFF772FD41
:100DA00000900FE0306840F00100F4E740F00400EC
:100DB0003060F7E7FFF766FD0099411A41F288308D
:100DC000814266D830688007F4D50EE0FFF75AFDFF
:100DD000009007E0FFF756FD0099411A41F2883074
:100DE000814256D830688007F4D42FB1DBF8001068
:100DF00021F08051CBF80010A069C8B33D49091D0E
:100E00000968C1F3810102294AD00228504607D05F
:100E1000C8F8600000E03CE0FFF734FD04463BE02A
:100E20004746C8F86000FFF72DFD064605E000BF05
:100E3000FFF728FD801B02282BD828688001F7D4F3
:100E4000D4E907010843A16A2E4A490802EB01418F
:100E5000626A41EA8211084394F82C1040EA016169
:100E6000C9F8001001203866FFF70CFD044606E0C3
:100E70003EE000BFFFF706FD001B022809D82868E6
:100E80008001F7D534E000BFFFF7FCFC001B02280F
:100E900002D90320BDE8F88F28688001F4D427E048
:100EA0000128F7D0D9F80000E26900F480019142EE
:100EB0001CD1226A00F03F01914217D147F6C07160
:100EC000626A0140B1EB821F10D1A26A4FF0FF337A
:100ED00000F4403103EB5202B1EB024F06D194F81B
:100EE0002C1000F07060B0EB016F01D00120D1E751
:100EF0000020CFE70438024000004742800E4742FE
:100F0000007000400000FFFF7047000038B5016826
:100F100004464A688868C043430606D5C30704D11F
:100F2000D3435B0601D4216C05E0830708D4D34387
:100F30001B0605D4616C01B02046BDE8304008476F
:100F4000830603D5430601D5C30551D4D3439B067D
:100F50004ED443060AD494F85130032B49D0636D24
:100F600043F004036365CB688B680093830609D460
:100F7000636D43F0010363658B6800930B6823F096
:100F800040030B60C00506D4606D40F0080060654A
:100F9000206880680090606D002829D02068416832
:100FA00021F0E0014160012084F85100900701D454
:100FB000D00722D02068416821F003014160114D23
:100FC000E06C40B10565E06CFFF752FB18B1606D55
:100FD00040F040006065A06C002809D00565A06C59
:100FE000FFF746FB002803D0606D40F040006065CD
:100FF00038BDC8688868009038BD2046FFF784FF78
:1010000038BD00002917000870B5040009D0606AD7
:10101000002540B125616561A56294F8510040B199
:101020000CE0012070BD6068B0F5827FF4D0E5610E
:10103000F2E784F85050204600F044F8022084F88B
:1010400051002068016821F040010160A0882189D9
:1010500000F4827001F404410843A18901F40061A5
:101060000843217C01F002010843217D01F00101C8
:101070000843218B01F400710843217F01F03801FE
:10108000084394F8201001F080010843218D01F4F9
:101090000051084321680860A069042101EA10405A
:1010A00094F8241001F0100108432168486020687A
:1010B000C16921F40061C1616565012084F85100B6
:1010C000002070BD10B586B0044614216846FFF7B5
:1010D000B1F817492068884228D1164800210268D3
:1010E00042F480520260006800F48050059011487C
:1010F0001438026842F001020260006800F001004A
:101100000590F02000900220CDE90101032003901A
:101110000520049069460848FFF7BCFA0022032125
:101120002320FFF71DFC2320FFF70CFC06B010BDA9
:10113000003001404438024000000240F0B4002476
:101140008568134604261DB94268B2F5827F0DD02A
:1011500090F85020012A0FD0012280F8502090F8FA
:1011600051700022012F0AD0022436E080F851602D
:10117000F0BC0A4600F05EB80220F0BC704771B1C6
:101180006BB180F85160426581638387C3870263D6
:101190008286C2864264C16819B1124902E0012404
:1011A0001BE011490164B5F5004F09D101680B68D6
:1011B00023F040030B6001680B6823F480430B604D
:1011C00001684B6843F060034B6001680B685B0685
:1011D00003D40B6843F040030B6080F85020204696
:1011E000CBE70000ED1700080D18000810B50068E7
:1011F0000C49884214D10A230B220B490B4800F0FA
:10120000E7F809490A2309220839084800F0E0F8FC
:1012100005490922BDE8104008390548FFF78EBF8F
:1012200010BD00000030014008000020A800002090
:1012300050000020F0B590F850500024012D0CD043
:10124000012580F8505090F8515000264768012D34
:101250000BD0B7F5827F06D101E00220F0BD876890
:101260000FB9042D01D0022429E0A9B1A2B19BB18C
:1012700090F85150042D02D0052580F85150466554
:1012800001638386C38682638387C387C16829B16C
:101290000D4901640D4904E0012410E00C4901648A
:1012A0000C49416401684A6842F0E0024A60016802
:1012B0000A68520603D40A6842F040020A6080F8C5
:1012C00050602046F0BD00008D150008ED150008A7
:1012D000BD1500081D160008704710B5401EB0F17E
:1012E000807F01D3012010BD4FF0E02460610F2109
:1012F000601700F019FC0020A06107202061002089
:1013000010BD70B5040004D094F83D00002510B164
:1013100006E0012070BD84F83C50204600F022F821
:10132000242084F83D002068C16821F40051C16088
:10133000204600F02DFB2068016921F490410161F5
:101340002068416921F02A0141612068C16841F4A7
:101350000051C1602564202084F83D0084F83E00DF
:10136000002070BD10B586B0044614216846FEF713
:1013700061FF14492068884221D113480021026886
:1013800042F010020260006800F0100005900E4864
:101390001438026842F001020260006800F00100A7
:1013A00005904FF4C06000900220CDE901010320B8
:1013B00003900720049069460448FFF76BF906B0D4
:1013C00010BD0000001001404438024000000240FF
:1013D0002DE9F843044690F83D001F4616460D4699
:1013E00020284CD1C5B1BEB194F83C00012846D0AC
:1013F000012084F83C004FF00008C4F84080212010
:1014000084F83D00FFF73EFAA6848146E684A06892
:10141000B0F5805F03D004E00120BDE8F8832069C7
:1014200028B12E465FF0000584F83C800EE00026CF
:10143000FAE78021204600F031FBA0B9AEB116F8E2
:10144000010B21684860E08C401EE084E08C4B4634
:101450004FF0000200970028EBD14FF040012046EA
:1014600000F01CFB30B10320D7E735F8020BC0F3C6
:101470000800E6E7202084F83D000020CDE70220A8
:10148000CBE7FEE70F4810B50D490160152141601B
:10149000002181604FF48012C160C0E9041201761E
:1014A000012242768276C17601774177FFF708F80C
:1014B000002803D0BDE81040FEF701BF10BD0000BA
:1014C00000640040280000200D4808B5016841F084
:1014D00004010160016801F004010091016841F01C
:1014E00080010160016801F080010091016841F014
:1014F00001010160006800F00100009008BD0000DB
:10150000303802400D4810B50B49016000214160A0
:101510008160C160016141618161016241628162FA
:101520000A21C162FFF770FD002803D0BDE810401A
:10153000FEF7C5BE10BD0000003001405000002085
:101540000C4810B50A4901604FF4E13141600021B7
:1015500081600C22C160C0E904128161C161FFF7A2
:10156000D0FE002803D0BDE81040FEF7A8BE10BD95
:1015700000100140A8000020FEE7FEE770470000D1
:101580000148FFF7C3BC0000500000200168C96893
:10159000826B1180816B891C8163C18F491EC18759
:1015A000C18F002909D101684A6822F040024A60CF
:1015B000C18E002901D100F049B870470168097B4C
:1015C000826B1170816B491C8163C18F491EC18779
:1015D000C18F002909D101684A6822F060024A607F
:1015E000C18E002901D100F031B87047016B02684B
:1015F0000988D160016B891C0163C18E491EC186B7
:10160000C18E002909D101684A6822F080024A602F
:10161000C18F002901D100F019B87047016B026831
:1016200009781173016B491C0163C18E491EC18683
:10163000C18E002909D101684A6822F080024A60FF
:10164000C18F002901D100F001B8704738B50446B8
:10165000214845F6C0510068B0FBF1F064214843D1
:101660000090FFF70FF902462068416821F0200141
:101670004160009888B1401E009020688068800713
:10168000F7D56421204600F085F818B1606D40F070
:1016900020006065A06828B108E0606D40F020007F
:1016A0006065EEE72068C16880680090616D012088
:1016B00029B184F851002046FFF726FC38BD94F884
:1016C000511084F851000429204602D0FFF704FE8F
:1016D00038BDFFF78BFD38BD2000002038B504462B
:1016E0000068416821F060014160FFF7CBF80246D5
:1016F0006421204600F020F818B1606D40F0200011
:101700006065A06818B92068C168806800900120F1
:1017100084F85100606D0028204602D0FFF7F4FBEA
:1017200038BDFFF763FD38BD10B5806B0021C18760
:10173000C186FFF7E9FB10BDF8B5044640684FF4D9
:101740008273984221D1A0684FF48065B0F5004FB4
:1017500001D0A8420AD12068066826F0400606603B
:101760006068984211D1A068A8420ED000920B4642
:1017700000228021204600F059F8002804D0606D36
:1017800040F0200060650320F8BD00920B46002267
:101790000121EFE738B504461248134B0068B0FB4F
:1017A000F3F04FF47A73584300906068B0F5827F8D
:1017B0000DD10B46009200228021204600F036F821
:1017C00070B1606D40F020006065032038BD009866
:1017D00030B1401E009020688068C0430006F6D5F6
:1017E000002038BD2000002000366E010168C96865
:1017F000826B1180816B891C8163C18F491EC187F7
:10180000C18F002901D1FFF769BF70470168097BCB
:10181000826B1170816B491C8163C18F491EC18726
:10182000C18F002901D1FFF759BF70472DE9F84357
:101830001E46914688460446089DFFF723F8401B44
:10184000351AFFF71FF8074625480068C0F3CB306C
:10185000684338E0701C37D0FFF714F8C01BA8426B
:1018600003D215B1009860B32CE02068416821F0E4
:10187000E00141606068B0F5827F0BD1A068B0F5EF
:10188000004F02D0B0F5806F04D12068016821F0CC
:1018900040010160A06AB0F5005F09D120680168CD
:1018A00021F4005101602068016841F40051016099
:1018B000012084F85100002084F850000320BDE886
:1018C000F8830025401E00902068816838EA0100F6
:1018D00004D000214945BDD10020F0E70121F9E7FE
:1018E000200000207047FEF7D3BF000030B593B052
:1018F00030216846FEF79EFC14210CA8FEF79AFCE6
:101900001D480025016841F080510160006800F029
:10191000805011901948016841F4804101600068CD
:10192000022400F4804011900120039010200490C4
:10193000009406940820CDE90750A820CDE90904B9
:1019400004200B906846FFF729F908B172B6FEE74C
:101950000CA90F2081E831004FF4A0500F904FF4F4
:101960008050109005210CA8FFF72CF8002801D01A
:1019700072B6FEE713B030BD403802400070004040
:101980000248016841F470010160704788ED00E091
:1019900070B5044600680169E26821F440511143C2
:1019A00001612169A068E269084361691143084344
:1019B0002168CA6849F20C639A430243CA602068EE
:1019C0004169A26921F440711143416131492068A4
:1019D000884202D03049884202D1FFF79DF801E0E9
:1019E000FFF78AF8E2690023192164253226B2F54F
:1019F000004F626828D0A0FB0101930F9200FEF710
:101A0000E1FB0146B0FBF5F06FF01802504301EB2B
:101A1000800006EB0010B0FBF5F000F0F002B1FB27
:101A2000F5F002EB0012B1FBF5F06FF0180358432C
:101A300001EB800006EB0010B0FBF5F000F00F00AA
:101A400021681044886070BDA0FB010192185B41C1
:101A5000FEF7B8FB0146B0FBF5F00201B1FBF5F073
:101A60006FF01803584301EB800006EBC000B0FB99
:101A7000F5F000F0F80002EB4002B1FBF5F058433E
:101A800001EB800006EBC000B0FBF5F000F00700B2
:101A9000D6E7000000100140001401402DE9F0419C
:101AA000984617460E460446069D27E0681C25D03A
:101AB0002DB1FEF7E7FEA0EB0800A8421ED9206872
:101AC0000C3050E8001F21F4D07140E80012002AC9
:101AD000F5D12068143050E8001F21F0010140E8E2
:101AE0000012002AF5D1202084F83D0084F83E0041
:101AF000002084F83C000320BDE8F08120680068E5
:101B000036EA000004D00020B842CFD00020F3E72E
:101B10000120F9E7FEE70000014A024900F023B87E
:101B2000891B0008240000200907090E002804DB97
:101B300000F1E02080F80014704700F00F0000F181
:101B4000E02080F8141D704702E008C8121F08C189
:101B5000002AFAD170477047002001E001C1121F2E
:101B6000002AFBD170472DE9F04116460F46044686
:101B7000002503E03946B047641C6D1C207800281E
:101B8000F8D12846BDE8F08113B54FF47A730122ED
:101B900069460248FFF71CFC00981CBDA800002005
:101BA00008B5FEF77DFEFFF7A1FEFFF78DFCFFF7FE
:101BB00069FCFFF7A7FCFFF7C3FC092208490948A5
:101BC000FFF7BCFA08A00A230068009002226946C9
:101BD0000648FFF7FDFB06A0FFF79EFFFEE70000AB
:101BE00000000020500000204F4B0000A800002003
:101BF0007072696E74665F6F6B0A0000000000000F
:101C000000000000010203040607080900000000AC
:101C100001020304341C000800000020280000001A
:101C2000481B00085C1C000828000020C8040000B5
:101C3000581B000801010101010101017265636582
:101C4000697665206F6B0A0001000000100000003B
:0C1C5000000000000024F4000000000070
:040000050800018965
:00000001FF
